:100000000C9434000C943E000C943E000C943E0082
:100010000C943E000C943E000C943E000C943E0068
:100020000C943E000C943E000C943E000C943E0058
:100030000C943E000C943E000C943E000C943E0048
:100040000C943E000C943E000C943E000C943E0038
:100050000C943E000C943E000C943E000C943E0028
:100060000C943E000C943E0011241FBECFEFD8E04C
:10007000DEBFCDBF0E9440000C942A030C94000008
:10008000CF93DF93CDB7DEB7A3970FB6F894DEBF5B
:100090000FBECDBF84E290E024E230E0F901208180
:1000A0002160FC01208385E290E025E230E0F90147
:1000B00020812E7FFC0120838AE290E02AE230E05A
:1000C000F90120812B7FFC0120838BE290E02BE261
:1000D00030E0F90120812460FC012083198281E055
:1000E0008A8389E290E0FC018081882F90E084700F
:1000F000992721E0892B09F420E02B839B8181E063
:100100008927882341F18A81882329F18981882FD1
:1001100090E021E0892B09F420E081E08227882FFC
:1001200090E089838981817089838981882351F056
:1001300085E290E025E230E0F90120812160FC01B8
:10014000208309C085E290E025E230E0F9012081BA
:100150002E7FFC0120838B818A8380E090E0A0E2E7
:10016000B1E48C839D83AE83BF8325E535E545E50A
:1001700050E46C817D818E819F810E94BD02DC01F3
:10018000CB0188879987AA87BB8720E030E040E2CF
:1001900050E46C817D818E819F810E94BD02DC01D3
:1001A000CB018C879D87AE87BF8720E030E040E899
:1001B0005FE3688579858A859B850E949D018823F8
:1001C0001CF481E0888BB2C020E03FEF4FE757E49A
:1001D0006C857D858E859F850E94B80218160CF06F
:1001E0007BC020E030E04AE754E46C817D818E8161
:1001F0009F810E94A201DC01CB01898B9A8BAB8B82
:10020000BC8B20E030E44CE155E469897A898B8924
:100210009C890E94BD02DC01CB018D8B9E8BAF8B34
:10022000B88F20E030E040E85FE36D897E898F89F8
:10023000988D0E949D0188232CF481E090E09A8F94
:10024000898F3FC020E03FEF4FE757E46D897E89FB
:100250008F89988D0E94B80218164CF520E030E086
:1002600040E251E469897A898B899C890E94BD02A8
:10027000DC01CB01BC01CD010E941402DC01CB01E9
:100280009A8F898F0FC08AEF90E09C8F8B8F8B8D18
:100290009C8D0197F1F79C8F8B8F898D9A8D01979B
:1002A0009A8F898F898D9A8D892B69F73FC06D89C7
:1002B0007E898F89988D0E941402DC01CB019A8F70
:1002C000898F898D9A8D9E8F8D8F8D8D9E8D0197B3
:1002D000F1F79E8F8D8F2AC020E030E04FE753E486
:1002E000688579858A859B850E94B8021816ACF4CA
:1002F0006C857D858E859F850E941402DC01CB0173
:1003000098A38F8F8F8D98A19AA389A389A19AA171
:100310000197F1F79AA389A3E4CE688579858A8548
:100320009B850E941402DC01CB01888B88898BA3FA
:100330008BA18A95F1F78BA3D4CE0E94430208F4D7
:1003400081E008950E94B6010C947E020E9477021B
:1003500058F00E94700240F029F45F3F29F00C949D
:10036000670251110C94B2020C946D020E948F022C
:1003700068F39923B1F3552391F3951B550BBB27D4
:10038000AA2762177307840738F09F5F5F4F220F19
:10039000331F441FAA1FA9F335D00E2E3AF0E0E810
:1003A00032D091505040E695001CCAF72BD0FE2F5A
:1003B00029D0660F771F881FBB1F261737074807EE
:1003C000AB07B0E809F0BB0B802DBF01FF279358A6
:1003D0005F4F3AF09E3F510578F00C9467020C9401
:1003E000B2025F3FE4F3983ED4F386957795679524
:1003F000B795F7959F5FC9F7880F911D96958795DB
:1004000097F90895E1E0660F771F881FBB1F6217F9
:1004100073078407BA0720F0621B730B840BBA0BB7
:10042000EE1F88F7E09508950E94970288F09F5785
:1004300098F0B92F9927B751B0F0E1F0660F771F08
:10044000881F991F1AF0BA95C9F714C0B13091F0FE
:100450000E94B102B1E008950C94B102672F782F89
:100460008827B85F39F0B93FCCF3869577956795C3
:10047000B395D9F73EF490958095709561957F4F2F
:100480008F4F9F4F0895990F0008550FAA0BE0E872
:10049000FEEF16161706E807F907C0F01216130646
:1004A000E407F50798F0621B730B840B950B39F486
:1004B0000A2661F0232B242B252B21F408950A26EC
:1004C00009F4A140A6958FEF811D811D089597F92C
:1004D0009F6780E870E060E008959FEF80EC0895EA
:1004E00000240A9416161706180609060895002413
:1004F0000A9412161306140605060895092E03948D
:10050000000C11F4882352F0BB0F40F4BF2B11F400
:1005100060FF04C06F5F7F4F8F4F9F4F089557FD5F
:100520009058440F551F59F05F3F71F04795880F61
:1005300097FB991F61F09F3F79F0879508951216F8
:1005400013061406551FF2CF4695F1DF08C01616A4
:1005500017061806991FF1CF869571056105089455
:100560000895E894BB2766277727CB0197F908956C
:100570000E94430208F48FEF08950E94D0020C9469
:100580007E020E94700238F00E94770220F09523CC
:1005900011F00C9467020C946D0211240C94B202B9
:1005A0000E948F0270F3959FC1F3950F50E0551F85
:1005B000629FF001729FBB27F00DB11D639FAA27B8
:1005C000F00DB11DAA1F649F6627B00DA11D661F07
:1005D000829F2227B00DA11D621F739FB00DA11D28
:1005E000621F839FA00D611D221F749F3327A00DE2
:1005F000611D231F849F600D211D822F762F6A2F7E
:1006000011249F5750409AF0F1F088234AF0EE0FE2
:10061000FF1FBB1F661F771F881F91505040A9F70F
:100620009E3F510580F00C9467020C94B2025F3F2C
:10063000E4F3983ED4F3869577956795B795F7954B
:10064000E7959F5FC1F7FE2B880F911D96958795C3
:0806500097F90895F894FFCF1B
:00000001FF
